{
  "_format": "hh-sol-artifact-1",
  "contractName": "BundleNFT",
  "sourceName": "contracts/BundleNFT.sol",
  "abi": [
    {
      "anonymous": false,
      "inputs": [
        {
          "indexed": true,
          "internalType": "address",
          "name": "owner",
          "type": "address"
        },
        {
          "indexed": true,
          "internalType": "address",
          "name": "approved",
          "type": "address"
        },
        {
          "indexed": true,
          "internalType": "uint256",
          "name": "tokenId",
          "type": "uint256"
        }
      ],
      "name": "Approval",
      "type": "event"
    },
    {
      "anonymous": false,
      "inputs": [
        {
          "indexed": true,
          "internalType": "address",
          "name": "owner",
          "type": "address"
        },
        {
          "indexed": true,
          "internalType": "address",
          "name": "operator",
          "type": "address"
        },
        {
          "indexed": false,
          "internalType": "bool",
          "name": "approved",
          "type": "bool"
        }
      ],
      "name": "ApprovalForAll",
      "type": "event"
    },
    {
      "anonymous": false,
      "inputs": [
        {
          "indexed": true,
          "internalType": "address",
          "name": "previousOwner",
          "type": "address"
        },
        {
          "indexed": true,
          "internalType": "address",
          "name": "newOwner",
          "type": "address"
        }
      ],
      "name": "OwnershipTransferred",
      "type": "event"
    },
    {
      "anonymous": false,
      "inputs": [
        {
          "indexed": true,
          "internalType": "address",
          "name": "from",
          "type": "address"
        },
        {
          "indexed": true,
          "internalType": "address",
          "name": "to",
          "type": "address"
        },
        {
          "indexed": true,
          "internalType": "uint256",
          "name": "tokenId",
          "type": "uint256"
        }
      ],
      "name": "Transfer",
      "type": "event"
    },
    {
      "inputs": [
        {
          "internalType": "string",
          "name": "name_",
          "type": "string"
        },
        {
          "internalType": "string",
          "name": "symbol_",
          "type": "string"
        }
      ],
      "name": "__BundleNFT_init",
      "outputs": [],
      "stateMutability": "nonpayable",
      "type": "function"
    },
    {
      "inputs": [
        {
          "internalType": "address",
          "name": "to",
          "type": "address"
        },
        {
          "internalType": "uint256",
          "name": "tokenId",
          "type": "uint256"
        }
      ],
      "name": "approve",
      "outputs": [],
      "stateMutability": "nonpayable",
      "type": "function"
    },
    {
      "inputs": [
        {
          "internalType": "address",
          "name": "owner",
          "type": "address"
        }
      ],
      "name": "balanceOf",
      "outputs": [
        {
          "internalType": "uint256",
          "name": "",
          "type": "uint256"
        }
      ],
      "stateMutability": "view",
      "type": "function"
    },
    {
      "inputs": [
        {
          "internalType": "uint256",
          "name": "_tokenId",
          "type": "uint256"
        }
      ],
      "name": "bundeledTokensOf",
      "outputs": [
        {
          "components": [
            {
              "internalType": "contract IERC721",
              "name": "token",
              "type": "address"
            },
            {
              "internalType": "uint256",
              "name": "tokenId",
              "type": "uint256"
            }
          ],
          "internalType": "struct BundleNFT.NFT[]",
          "name": "",
          "type": "tuple[]"
        }
      ],
      "stateMutability": "view",
      "type": "function"
    },
    {
      "inputs": [
        {
          "components": [
            {
              "internalType": "contract IERC721",
              "name": "token",
              "type": "address"
            },
            {
              "internalType": "uint256",
              "name": "tokenId",
              "type": "uint256"
            }
          ],
          "internalType": "struct BundleNFT.NFT[]",
          "name": "_tokens",
          "type": "tuple[]"
        }
      ],
      "name": "bundle",
      "outputs": [
        {
          "internalType": "uint256",
          "name": "",
          "type": "uint256"
        }
      ],
      "stateMutability": "payable",
      "type": "function"
    },
    {
      "inputs": [],
      "name": "bundleFee",
      "outputs": [
        {
          "internalType": "uint256",
          "name": "",
          "type": "uint256"
        }
      ],
      "stateMutability": "view",
      "type": "function"
    },
    {
      "inputs": [
        {
          "components": [
            {
              "internalType": "contract IERC721",
              "name": "token",
              "type": "address"
            },
            {
              "internalType": "uint256",
              "name": "tokenId",
              "type": "uint256"
            }
          ],
          "internalType": "struct BundleNFT.NFT[]",
          "name": "_tokens",
          "type": "tuple[]"
        },
        {
          "internalType": "string",
          "name": "tokenURI",
          "type": "string"
        }
      ],
      "name": "bundleWithTokenURI",
      "outputs": [
        {
          "internalType": "uint256",
          "name": "",
          "type": "uint256"
        }
      ],
      "stateMutability": "payable",
      "type": "function"
    },
    {
      "inputs": [
        {
          "internalType": "uint256",
          "name": "",
          "type": "uint256"
        },
        {
          "internalType": "uint256",
          "name": "",
          "type": "uint256"
        }
      ],
      "name": "bundles",
      "outputs": [
        {
          "internalType": "contract IERC721",
          "name": "token",
          "type": "address"
        },
        {
          "internalType": "uint256",
          "name": "tokenId",
          "type": "uint256"
        }
      ],
      "stateMutability": "view",
      "type": "function"
    },
    {
      "inputs": [
        {
          "internalType": "uint256",
          "name": "tokenId",
          "type": "uint256"
        }
      ],
      "name": "getApproved",
      "outputs": [
        {
          "internalType": "address",
          "name": "",
          "type": "address"
        }
      ],
      "stateMutability": "view",
      "type": "function"
    },
    {
      "inputs": [
        {
          "internalType": "address",
          "name": "owner",
          "type": "address"
        },
        {
          "internalType": "address",
          "name": "operator",
          "type": "address"
        }
      ],
      "name": "isApprovedForAll",
      "outputs": [
        {
          "internalType": "bool",
          "name": "",
          "type": "bool"
        }
      ],
      "stateMutability": "view",
      "type": "function"
    },
    {
      "inputs": [],
      "name": "name",
      "outputs": [
        {
          "internalType": "string",
          "name": "",
          "type": "string"
        }
      ],
      "stateMutability": "view",
      "type": "function"
    },
    {
      "inputs": [
        {
          "internalType": "address",
          "name": "",
          "type": "address"
        },
        {
          "internalType": "address",
          "name": "",
          "type": "address"
        },
        {
          "internalType": "uint256",
          "name": "",
          "type": "uint256"
        },
        {
          "internalType": "bytes",
          "name": "",
          "type": "bytes"
        }
      ],
      "name": "onERC721Received",
      "outputs": [
        {
          "internalType": "bytes4",
          "name": "",
          "type": "bytes4"
        }
      ],
      "stateMutability": "pure",
      "type": "function"
    },
    {
      "inputs": [],
      "name": "owner",
      "outputs": [
        {
          "internalType": "address",
          "name": "",
          "type": "address"
        }
      ],
      "stateMutability": "view",
      "type": "function"
    },
    {
      "inputs": [
        {
          "internalType": "uint256",
          "name": "tokenId",
          "type": "uint256"
        }
      ],
      "name": "ownerOf",
      "outputs": [
        {
          "internalType": "address",
          "name": "",
          "type": "address"
        }
      ],
      "stateMutability": "view",
      "type": "function"
    },
    {
      "inputs": [],
      "name": "renounceOwnership",
      "outputs": [],
      "stateMutability": "nonpayable",
      "type": "function"
    },
    {
      "inputs": [
        {
          "internalType": "address",
          "name": "from",
          "type": "address"
        },
        {
          "internalType": "address",
          "name": "to",
          "type": "address"
        },
        {
          "internalType": "uint256",
          "name": "tokenId",
          "type": "uint256"
        }
      ],
      "name": "safeTransferFrom",
      "outputs": [],
      "stateMutability": "nonpayable",
      "type": "function"
    },
    {
      "inputs": [
        {
          "internalType": "address",
          "name": "from",
          "type": "address"
        },
        {
          "internalType": "address",
          "name": "to",
          "type": "address"
        },
        {
          "internalType": "uint256",
          "name": "tokenId",
          "type": "uint256"
        },
        {
          "internalType": "bytes",
          "name": "_data",
          "type": "bytes"
        }
      ],
      "name": "safeTransferFrom",
      "outputs": [],
      "stateMutability": "nonpayable",
      "type": "function"
    },
    {
      "inputs": [
        {
          "internalType": "address",
          "name": "operator",
          "type": "address"
        },
        {
          "internalType": "bool",
          "name": "approved",
          "type": "bool"
        }
      ],
      "name": "setApprovalForAll",
      "outputs": [],
      "stateMutability": "nonpayable",
      "type": "function"
    },
    {
      "inputs": [
        {
          "internalType": "uint256",
          "name": "_fee",
          "type": "uint256"
        }
      ],
      "name": "setBundleFee",
      "outputs": [],
      "stateMutability": "nonpayable",
      "type": "function"
    },
    {
      "inputs": [
        {
          "internalType": "bytes4",
          "name": "interfaceId",
          "type": "bytes4"
        }
      ],
      "name": "supportsInterface",
      "outputs": [
        {
          "internalType": "bool",
          "name": "",
          "type": "bool"
        }
      ],
      "stateMutability": "view",
      "type": "function"
    },
    {
      "inputs": [],
      "name": "symbol",
      "outputs": [
        {
          "internalType": "string",
          "name": "",
          "type": "string"
        }
      ],
      "stateMutability": "view",
      "type": "function"
    },
    {
      "inputs": [
        {
          "internalType": "uint256",
          "name": "tokenId",
          "type": "uint256"
        }
      ],
      "name": "tokenURI",
      "outputs": [
        {
          "internalType": "string",
          "name": "",
          "type": "string"
        }
      ],
      "stateMutability": "view",
      "type": "function"
    },
    {
      "inputs": [
        {
          "internalType": "address",
          "name": "from",
          "type": "address"
        },
        {
          "internalType": "address",
          "name": "to",
          "type": "address"
        },
        {
          "internalType": "uint256",
          "name": "tokenId",
          "type": "uint256"
        }
      ],
      "name": "transferFrom",
      "outputs": [],
      "stateMutability": "nonpayable",
      "type": "function"
    },
    {
      "inputs": [
        {
          "internalType": "address",
          "name": "newOwner",
          "type": "address"
        }
      ],
      "name": "transferOwnership",
      "outputs": [],
      "stateMutability": "nonpayable",
      "type": "function"
    },
    {
      "inputs": [
        {
          "internalType": "uint256",
          "name": "_tokenId",
          "type": "uint256"
        }
      ],
      "name": "unbundle",
      "outputs": [],
      "stateMutability": "nonpayable",
      "type": "function"
    },
    {
      "inputs": [],
      "name": "withdrawFees",
      "outputs": [],
      "stateMutability": "nonpayable",
      "type": "function"
    }
  ],
  "bytecode": "0x608060405234801561001057600080fd5b50614927806100206000396000f3fe6080604052600436106101815760003560e01c80638da5cb5b116100d1578063cf6e1d111161008a578063f2fde38b11610064578063f2fde38b146105b1578063f8a6386d146105da578063f9b9951714610603578063ffa5b6da1461062c57610181565b8063cf6e1d11146104f9578063de2e44af14610537578063e985e9c51461057457610181565b80638da5cb5b146103e457806395d89b411461040f578063a22cb4651461043a578063b553795e14610463578063b88d4fde14610493578063c87b56dd146104bc57610181565b806330a495011161013e5780635b1763a1116101185780635b1763a1146103235780636352211e1461035357806370a0823114610390578063715018a6146103cd57610181565b806330a49501146102ba57806342842e0e146102e3578063476343ee1461030c57610181565b806301ffc9a71461018657806306fdde03146101c3578063081812fc146101ee578063095ea7b31461022b578063150b7a021461025457806323b872dd14610291575b600080fd5b34801561019257600080fd5b506101ad60048036038101906101a89190612e99565b610657565b6040516101ba9190612ee1565b60405180910390f35b3480156101cf57600080fd5b506101d8610739565b6040516101e59190612f95565b60405180910390f35b3480156101fa57600080fd5b5061021560048036038101906102109190612fed565b6107cb565b604051610222919061305b565b60405180910390f35b34801561023757600080fd5b50610252600480360381019061024d91906130a2565b610850565b005b34801561026057600080fd5b5061027b60048036038101906102769190613147565b610968565b60405161028891906131de565b60405180910390f35b34801561029d57600080fd5b506102b860048036038101906102b391906131f9565b61097d565b005b3480156102c657600080fd5b506102e160048036038101906102dc9190612fed565b6109dd565b005b3480156102ef57600080fd5b5061030a600480360381019061030591906131f9565b610a63565b005b34801561031857600080fd5b50610321610a83565b005b61033d6004803603810190610338919061341d565b610b48565b60405161034a9190613475565b60405180910390f35b34801561035f57600080fd5b5061037a60048036038101906103759190612fed565b610d45565b604051610387919061305b565b60405180910390f35b34801561039c57600080fd5b506103b760048036038101906103b29190613490565b610df7565b6040516103c49190613475565b60405180910390f35b3480156103d957600080fd5b506103e2610eaf565b005b3480156103f057600080fd5b506103f9610f37565b604051610406919061305b565b60405180910390f35b34801561041b57600080fd5b50610424610f61565b6040516104319190612f95565b60405180910390f35b34801561044657600080fd5b50610461600480360381019061045c91906134e9565b610ff3565b005b61047d600480360381019061047891906135de565b611174565b60405161048a9190613475565b60405180910390f35b34801561049f57600080fd5b506104ba60048036038101906104b591906136f7565b611196565b005b3480156104c857600080fd5b506104e360048036038101906104de9190612fed565b6111f8565b6040516104f09190612f95565b60405180910390f35b34801561050557600080fd5b50610520600480360381019061051b919061377a565b61134a565b60405161052e929190613819565b60405180910390f35b34801561054357600080fd5b5061055e60048036038101906105599190612fed565b6113ab565b60405161056b919061393e565b60405180910390f35b34801561058057600080fd5b5061059b60048036038101906105969190613960565b6114c5565b6040516105a89190612ee1565b60405180910390f35b3480156105bd57600080fd5b506105d860048036038101906105d39190613490565b611559565b005b3480156105e657600080fd5b5061060160048036038101906105fc9190612fed565b611651565b005b34801561060f57600080fd5b5061062a600480360381019061062591906139a0565b61188b565b005b34801561063857600080fd5b50610641611978565b60405161064e9190613475565b60405180910390f35b60007f80ac58cd000000000000000000000000000000000000000000000000000000007bffffffffffffffffffffffffffffffffffffffffffffffffffffffff1916827bffffffffffffffffffffffffffffffffffffffffffffffffffffffff1916148061072257507f5b5e139f000000000000000000000000000000000000000000000000000000007bffffffffffffffffffffffffffffffffffffffffffffffffffffffff1916827bffffffffffffffffffffffffffffffffffffffffffffffffffffffff1916145b8061073257506107318261197e565b5b9050919050565b60606097805461074890613a47565b80601f016020809104026020016040519081016040528092919081815260200182805461077490613a47565b80156107c15780601f10610796576101008083540402835291602001916107c1565b820191906000526020600020905b8154815290600101906020018083116107a457829003601f168201915b5050505050905090565b60006107d6826119e8565b610815576040517f08c379a000000000000000000000000000000000000000000000000000000000815260040161080c90613aeb565b60405180910390fd5b609b600083815260200190815260200160002060009054906101000a900473ffffffffffffffffffffffffffffffffffffffff169050919050565b600061085b82610d45565b90508073ffffffffffffffffffffffffffffffffffffffff168373ffffffffffffffffffffffffffffffffffffffff1614156108cc576040517f08c379a00000000000000000000000000000000000000000000000000000000081526004016108c390613b7d565b60405180910390fd5b8073ffffffffffffffffffffffffffffffffffffffff166108eb611a54565b73ffffffffffffffffffffffffffffffffffffffff16148061091a575061091981610914611a54565b6114c5565b5b610959576040517f08c379a000000000000000000000000000000000000000000000000000000000815260040161095090613c0f565b60405180910390fd5b6109638383611a5c565b505050565b600063150b7a0260e01b905095945050505050565b61098e610988611a54565b82611b15565b6109cd576040517f08c379a00000000000000000000000000000000000000000000000000000000081526004016109c490613ca1565b60405180910390fd5b6109d8838383611bf3565b505050565b6109e5611a54565b73ffffffffffffffffffffffffffffffffffffffff16610a03610f37565b73ffffffffffffffffffffffffffffffffffffffff1614610a59576040517f08c379a0000000000000000000000000000000000000000000000000000000008152600401610a5090613d0d565b60405180910390fd5b8060fc8190555050565b610a7e83838360405180602001604052806000815250611196565b505050565b610a8b611a54565b73ffffffffffffffffffffffffffffffffffffffff16610aa9610f37565b73ffffffffffffffffffffffffffffffffffffffff1614610aff576040517f08c379a0000000000000000000000000000000000000000000000000000000008152600401610af690613d0d565b60405180910390fd5b3373ffffffffffffffffffffffffffffffffffffffff166108fc479081150290604051600060405180830381858888f19350505050158015610b45573d6000803e3d6000fd5b50565b600060fc54341015610b8f576040517f08c379a0000000000000000000000000000000000000000000000000000000008152600401610b8690613d79565b60405180910390fd5b600082604051602001610ba2919061393e565b6040516020818303038152906040528051906020012060001c905060005b8351811015610d3157838181518110610bdc57610bdb613d99565b5b60200260200101516000015173ffffffffffffffffffffffffffffffffffffffff166342842e0e3330878581518110610c1857610c17613d99565b5b6020026020010151602001516040518463ffffffff1660e01b8152600401610c4293929190613dc8565b600060405180830381600087803b158015610c5c57600080fd5b505af1158015610c70573d6000803e3d6000fd5b5050505060fb6000838152602001908152602001600020848281518110610c9a57610c99613d99565b5b6020026020010151908060018154018082558091505060019003906000526020600020906002020160009091909190915060008201518160000160006101000a81548173ffffffffffffffffffffffffffffffffffffffff021916908373ffffffffffffffffffffffffffffffffffffffff1602179055506020820151816001015550508080610d2990613e2e565b915050610bc0565b50610d3c3382611e4f565b80915050919050565b6000806099600084815260200190815260200160002060009054906101000a900473ffffffffffffffffffffffffffffffffffffffff169050600073ffffffffffffffffffffffffffffffffffffffff168173ffffffffffffffffffffffffffffffffffffffff161415610dee576040517f08c379a0000000000000000000000000000000000000000000000000000000008152600401610de590613ee9565b60405180910390fd5b80915050919050565b60008073ffffffffffffffffffffffffffffffffffffffff168273ffffffffffffffffffffffffffffffffffffffff161415610e68576040517f08c379a0000000000000000000000000000000000000000000000000000000008152600401610e5f90613f7b565b60405180910390fd5b609a60008373ffffffffffffffffffffffffffffffffffffffff1673ffffffffffffffffffffffffffffffffffffffff168152602001908152602001600020549050919050565b610eb7611a54565b73ffffffffffffffffffffffffffffffffffffffff16610ed5610f37565b73ffffffffffffffffffffffffffffffffffffffff1614610f2b576040517f08c379a0000000000000000000000000000000000000000000000000000000008152600401610f2290613d0d565b60405180910390fd5b610f356000611e6d565b565b6000603360009054906101000a900473ffffffffffffffffffffffffffffffffffffffff16905090565b606060988054610f7090613a47565b80601f0160208091040260200160405190810160405280929190818152602001828054610f9c90613a47565b8015610fe95780601f10610fbe57610100808354040283529160200191610fe9565b820191906000526020600020905b815481529060010190602001808311610fcc57829003601f168201915b5050505050905090565b610ffb611a54565b73ffffffffffffffffffffffffffffffffffffffff168273ffffffffffffffffffffffffffffffffffffffff161415611069576040517f08c379a000000000000000000000000000000000000000000000000000000000815260040161106090613fe7565b60405180910390fd5b80609c6000611076611a54565b73ffffffffffffffffffffffffffffffffffffffff1673ffffffffffffffffffffffffffffffffffffffff16815260200190815260200160002060008473ffffffffffffffffffffffffffffffffffffffff1673ffffffffffffffffffffffffffffffffffffffff16815260200190815260200160002060006101000a81548160ff0219169083151502179055508173ffffffffffffffffffffffffffffffffffffffff16611123611a54565b73ffffffffffffffffffffffffffffffffffffffff167f17307eab39ab6107e8899845ad3d59bd9653f200f220920489ca2b5937696c31836040516111689190612ee1565b60405180910390a35050565b60008061118084610b48565b905061118c8184611f33565b8091505092915050565b6111a76111a1611a54565b83611b15565b6111e6576040517f08c379a00000000000000000000000000000000000000000000000000000000081526004016111dd90613ca1565b60405180910390fd5b6111f284848484611fa7565b50505050565b6060611203826119e8565b611242576040517f08c379a000000000000000000000000000000000000000000000000000000000815260040161123990614079565b60405180910390fd5b600060c96000848152602001908152602001600020805461126290613a47565b80601f016020809104026020016040519081016040528092919081815260200182805461128e90613a47565b80156112db5780601f106112b0576101008083540402835291602001916112db565b820191906000526020600020905b8154815290600101906020018083116112be57829003601f168201915b5050505050905060006112ec612003565b9050600081511415611302578192505050611345565b60008251111561133757808260405160200161131f9291906140d5565b60405160208183030381529060405292505050611345565b6113408461201a565b925050505b919050565b60fb602052816000526040600020818154811061136657600080fd5b9060005260206000209060020201600091509150508060000160009054906101000a900473ffffffffffffffffffffffffffffffffffffffff16908060010154905082565b60606113b6826119e8565b6113f5576040517f08c379a00000000000000000000000000000000000000000000000000000000081526004016113ec9061416b565b60405180910390fd5b60fb6000838152602001908152602001600020805480602002602001604051908101604052809291908181526020016000905b828210156114ba57838290600052602060002090600202016040518060400160405290816000820160009054906101000a900473ffffffffffffffffffffffffffffffffffffffff1673ffffffffffffffffffffffffffffffffffffffff1673ffffffffffffffffffffffffffffffffffffffff16815260200160018201548152505081526020019060010190611428565b505050509050919050565b6000609c60008473ffffffffffffffffffffffffffffffffffffffff1673ffffffffffffffffffffffffffffffffffffffff16815260200190815260200160002060008373ffffffffffffffffffffffffffffffffffffffff1673ffffffffffffffffffffffffffffffffffffffff16815260200190815260200160002060009054906101000a900460ff16905092915050565b611561611a54565b73ffffffffffffffffffffffffffffffffffffffff1661157f610f37565b73ffffffffffffffffffffffffffffffffffffffff16146115d5576040517f08c379a00000000000000000000000000000000000000000000000000000000081526004016115cc90613d0d565b60405180910390fd5b600073ffffffffffffffffffffffffffffffffffffffff168173ffffffffffffffffffffffffffffffffffffffff161415611645576040517f08c379a000000000000000000000000000000000000000000000000000000000815260040161163c906141fd565b60405180910390fd5b61164e81611e6d565b50565b3373ffffffffffffffffffffffffffffffffffffffff1661167182610d45565b73ffffffffffffffffffffffffffffffffffffffff16146116c7576040517f08c379a00000000000000000000000000000000000000000000000000000000081526004016116be9061428f565b60405180910390fd5b600060fb6000838152602001908152602001600020805480602002602001604051908101604052809291908181526020016000905b8282101561178e57838290600052602060002090600202016040518060400160405290816000820160009054906101000a900473ffffffffffffffffffffffffffffffffffffffff1673ffffffffffffffffffffffffffffffffffffffff1673ffffffffffffffffffffffffffffffffffffffff168152602001600182015481525050815260200190600101906116fc565b50505050905061179d826120c1565b60fb600083815260200190815260200160002060006117bc9190612ce0565b60005b8151811015611886578181815181106117db576117da613d99565b5b60200260200101516000015173ffffffffffffffffffffffffffffffffffffffff166342842e0e303385858151811061181757611816613d99565b5b6020026020010151602001516040518463ffffffff1660e01b815260040161184193929190613dc8565b600060405180830381600087803b15801561185b57600080fd5b505af115801561186f573d6000803e3d6000fd5b50505050808061187e90613e2e565b9150506117bf565b505050565b600060019054906101000a900460ff16806118b1575060008054906101000a900460ff16155b6118f0576040517f08c379a00000000000000000000000000000000000000000000000000000000081526004016118e790614321565b60405180910390fd5b60008060019054906101000a900460ff161590508015611940576001600060016101000a81548160ff02191690831515021790555060016000806101000a81548160ff0219169083151502179055505b611948612114565b61195283836121fd565b80156119735760008060016101000a81548160ff0219169083151502179055505b505050565b60fc5481565b60007f01ffc9a7000000000000000000000000000000000000000000000000000000007bffffffffffffffffffffffffffffffffffffffffffffffffffffffff1916827bffffffffffffffffffffffffffffffffffffffffffffffffffffffff1916149050919050565b60008073ffffffffffffffffffffffffffffffffffffffff166099600084815260200190815260200160002060009054906101000a900473ffffffffffffffffffffffffffffffffffffffff1673ffffffffffffffffffffffffffffffffffffffff1614159050919050565b600033905090565b81609b600083815260200190815260200160002060006101000a81548173ffffffffffffffffffffffffffffffffffffffff021916908373ffffffffffffffffffffffffffffffffffffffff160217905550808273ffffffffffffffffffffffffffffffffffffffff16611acf83610d45565b73ffffffffffffffffffffffffffffffffffffffff167f8c5be1e5ebec7d5bd14f71427d1e84f3dd0314c0f7b2291e5b200ac8c7c3b92560405160405180910390a45050565b6000611b20826119e8565b611b5f576040517f08c379a0000000000000000000000000000000000000000000000000000000008152600401611b56906143b3565b60405180910390fd5b6000611b6a83610d45565b90508073ffffffffffffffffffffffffffffffffffffffff168473ffffffffffffffffffffffffffffffffffffffff161480611bd957508373ffffffffffffffffffffffffffffffffffffffff16611bc1846107cb565b73ffffffffffffffffffffffffffffffffffffffff16145b80611bea5750611be981856114c5565b5b91505092915050565b8273ffffffffffffffffffffffffffffffffffffffff16611c1382610d45565b73ffffffffffffffffffffffffffffffffffffffff1614611c69576040517f08c379a0000000000000000000000000000000000000000000000000000000008152600401611c609061428f565b60405180910390fd5b600073ffffffffffffffffffffffffffffffffffffffff168273ffffffffffffffffffffffffffffffffffffffff161415611cd9576040517f08c379a0000000000000000000000000000000000000000000000000000000008152600401611cd090614445565b60405180910390fd5b611ce48383836122f2565b611cef600082611a5c565b6001609a60008573ffffffffffffffffffffffffffffffffffffffff1673ffffffffffffffffffffffffffffffffffffffff1681526020019081526020016000206000828254611d3f9190614465565b925050819055506001609a60008473ffffffffffffffffffffffffffffffffffffffff1673ffffffffffffffffffffffffffffffffffffffff1681526020019081526020016000206000828254611d969190614499565b92505081905550816099600083815260200190815260200160002060006101000a81548173ffffffffffffffffffffffffffffffffffffffff021916908373ffffffffffffffffffffffffffffffffffffffff160217905550808273ffffffffffffffffffffffffffffffffffffffff168473ffffffffffffffffffffffffffffffffffffffff167fddf252ad1be2c89b69c2b068fc378daa952ba7f163c4a11628f55a4df523b3ef60405160405180910390a4505050565b611e698282604051806020016040528060008152506122f7565b5050565b6000603360009054906101000a900473ffffffffffffffffffffffffffffffffffffffff16905081603360006101000a81548173ffffffffffffffffffffffffffffffffffffffff021916908373ffffffffffffffffffffffffffffffffffffffff1602179055508173ffffffffffffffffffffffffffffffffffffffff168173ffffffffffffffffffffffffffffffffffffffff167f8be0079c531659141344cd1fd0a4f28419497f9722a3daafe3b4186f6b6457e060405160405180910390a35050565b611f3c826119e8565b611f7b576040517f08c379a0000000000000000000000000000000000000000000000000000000008152600401611f7290614561565b60405180910390fd5b8060c960008481526020019081526020016000209080519060200190611fa2929190612d04565b505050565b611fb2848484611bf3565b611fbe84848484612352565b611ffd576040517f08c379a0000000000000000000000000000000000000000000000000000000008152600401611ff4906145f3565b60405180910390fd5b50505050565b606060405180602001604052806000815250905090565b6060612025826119e8565b612064576040517f08c379a000000000000000000000000000000000000000000000000000000000815260040161205b90614685565b60405180910390fd5b600061206e612003565b9050600081511161208e57604051806020016040528060008152506120b9565b80612098846124e9565b6040516020016120a99291906140d5565b6040516020818303038152906040525b915050919050565b6120ca8161264a565b600060c9600083815260200190815260200160002080546120ea90613a47565b9050146121115760c9600082815260200190815260200160002060006121109190612d8a565b5b50565b600060019054906101000a900460ff168061213a575060008054906101000a900460ff16155b612179576040517f08c379a000000000000000000000000000000000000000000000000000000000815260040161217090614321565b60405180910390fd5b60008060019054906101000a900460ff1615905080156121c9576001600060016101000a81548160ff02191690831515021790555060016000806101000a81548160ff0219169083151502179055505b6121d161275b565b6121d9612834565b80156121fa5760008060016101000a81548160ff0219169083151502179055505b50565b600060019054906101000a900460ff1680612223575060008054906101000a900460ff16155b612262576040517f08c379a000000000000000000000000000000000000000000000000000000000815260040161225990614321565b60405180910390fd5b60008060019054906101000a900460ff1615905080156122b2576001600060016101000a81548160ff02191690831515021790555060016000806101000a81548160ff0219169083151502179055505b6122ba61275b565b6122c261291d565b6122cc83836129f6565b80156122ed5760008060016101000a81548160ff0219169083151502179055505b505050565b505050565b6123018383612aff565b61230e6000848484612352565b61234d576040517f08c379a0000000000000000000000000000000000000000000000000000000008152600401612344906145f3565b60405180910390fd5b505050565b60006123738473ffffffffffffffffffffffffffffffffffffffff16612ccd565b156124dc578373ffffffffffffffffffffffffffffffffffffffff1663150b7a0261239c611a54565b8786866040518563ffffffff1660e01b81526004016123be94939291906146fa565b602060405180830381600087803b1580156123d857600080fd5b505af192505050801561240957506040513d601f19601f82011682018060405250810190612406919061475b565b60015b61248c573d8060008114612439576040519150601f19603f3d011682016040523d82523d6000602084013e61243e565b606091505b50600081511415612484576040517f08c379a000000000000000000000000000000000000000000000000000000000815260040161247b906145f3565b60405180910390fd5b805181602001fd5b63150b7a0260e01b7bffffffffffffffffffffffffffffffffffffffffffffffffffffffff1916817bffffffffffffffffffffffffffffffffffffffffffffffffffffffff1916149150506124e1565b600190505b949350505050565b60606000821415612531576040518060400160405280600181526020017f30000000000000000000000000000000000000000000000000000000000000008152509050612645565b600082905060005b6000821461256357808061254c90613e2e565b915050600a8261255c91906147b7565b9150612539565b60008167ffffffffffffffff81111561257f5761257e61324c565b5b6040519080825280601f01601f1916602001820160405280156125b15781602001600182028036833780820191505090505b5090505b6000851461263e576001826125ca9190614465565b9150600a856125d991906147e8565b60306125e59190614499565b60f81b8183815181106125fb576125fa613d99565b5b60200101907effffffffffffffffffffffffffffffffffffffffffffffffffffffffffffff1916908160001a905350600a8561263791906147b7565b94506125b5565b8093505050505b919050565b600061265582610d45565b9050612663816000846122f2565b61266e600083611a5c565b6001609a60008373ffffffffffffffffffffffffffffffffffffffff1673ffffffffffffffffffffffffffffffffffffffff16815260200190815260200160002060008282546126be9190614465565b925050819055506099600083815260200190815260200160002060006101000a81549073ffffffffffffffffffffffffffffffffffffffff021916905581600073ffffffffffffffffffffffffffffffffffffffff168273ffffffffffffffffffffffffffffffffffffffff167fddf252ad1be2c89b69c2b068fc378daa952ba7f163c4a11628f55a4df523b3ef60405160405180910390a45050565b600060019054906101000a900460ff1680612781575060008054906101000a900460ff16155b6127c0576040517f08c379a00000000000000000000000000000000000000000000000000000000081526004016127b790614321565b60405180910390fd5b60008060019054906101000a900460ff161590508015612810576001600060016101000a81548160ff02191690831515021790555060016000806101000a81548160ff0219169083151502179055505b80156128315760008060016101000a81548160ff0219169083151502179055505b50565b600060019054906101000a900460ff168061285a575060008054906101000a900460ff16155b612899576040517f08c379a000000000000000000000000000000000000000000000000000000000815260040161289090614321565b60405180910390fd5b60008060019054906101000a900460ff1615905080156128e9576001600060016101000a81548160ff02191690831515021790555060016000806101000a81548160ff0219169083151502179055505b6128f96128f4611a54565b611e6d565b801561291a5760008060016101000a81548160ff0219169083151502179055505b50565b600060019054906101000a900460ff1680612943575060008054906101000a900460ff16155b612982576040517f08c379a000000000000000000000000000000000000000000000000000000000815260040161297990614321565b60405180910390fd5b60008060019054906101000a900460ff1615905080156129d2576001600060016101000a81548160ff02191690831515021790555060016000806101000a81548160ff0219169083151502179055505b80156129f35760008060016101000a81548160ff0219169083151502179055505b50565b600060019054906101000a900460ff1680612a1c575060008054906101000a900460ff16155b612a5b576040517f08c379a0000000000000000000000000000000000000000000000000000000008152600401612a5290614321565b60405180910390fd5b60008060019054906101000a900460ff161590508015612aab576001600060016101000a81548160ff02191690831515021790555060016000806101000a81548160ff0219169083151502179055505b8260979080519060200190612ac1929190612d04565b508160989080519060200190612ad8929190612d04565b508015612afa5760008060016101000a81548160ff0219169083151502179055505b505050565b600073ffffffffffffffffffffffffffffffffffffffff168273ffffffffffffffffffffffffffffffffffffffff161415612b6f576040517f08c379a0000000000000000000000000000000000000000000000000000000008152600401612b6690614865565b60405180910390fd5b612b78816119e8565b15612bb8576040517f08c379a0000000000000000000000000000000000000000000000000000000008152600401612baf906148d1565b60405180910390fd5b612bc4600083836122f2565b6001609a60008473ffffffffffffffffffffffffffffffffffffffff1673ffffffffffffffffffffffffffffffffffffffff1681526020019081526020016000206000828254612c149190614499565b92505081905550816099600083815260200190815260200160002060006101000a81548173ffffffffffffffffffffffffffffffffffffffff021916908373ffffffffffffffffffffffffffffffffffffffff160217905550808273ffffffffffffffffffffffffffffffffffffffff16600073ffffffffffffffffffffffffffffffffffffffff167fddf252ad1be2c89b69c2b068fc378daa952ba7f163c4a11628f55a4df523b3ef60405160405180910390a45050565b600080823b905060008111915050919050565b5080546000825560020290600052602060002090810190612d019190612dca565b50565b828054612d1090613a47565b90600052602060002090601f016020900481019282612d325760008555612d79565b82601f10612d4b57805160ff1916838001178555612d79565b82800160010185558215612d79579182015b82811115612d78578251825591602001919060010190612d5d565b5b509050612d869190612e10565b5090565b508054612d9690613a47565b6000825580601f10612da85750612dc7565b601f016020900490600052602060002090810190612dc69190612e10565b5b50565b5b80821115612e0c57600080820160006101000a81549073ffffffffffffffffffffffffffffffffffffffff0219169055600182016000905550600201612dcb565b5090565b5b80821115612e29576000816000905550600101612e11565b5090565b6000604051905090565b600080fd5b600080fd5b60007fffffffff0000000000000000000000000000000000000000000000000000000082169050919050565b612e7681612e41565b8114612e8157600080fd5b50565b600081359050612e9381612e6d565b92915050565b600060208284031215612eaf57612eae612e37565b5b6000612ebd84828501612e84565b91505092915050565b60008115159050919050565b612edb81612ec6565b82525050565b6000602082019050612ef66000830184612ed2565b92915050565b600081519050919050565b600082825260208201905092915050565b60005b83811015612f36578082015181840152602081019050612f1b565b83811115612f45576000848401525b50505050565b6000601f19601f8301169050919050565b6000612f6782612efc565b612f718185612f07565b9350612f81818560208601612f18565b612f8a81612f4b565b840191505092915050565b60006020820190508181036000830152612faf8184612f5c565b905092915050565b6000819050919050565b612fca81612fb7565b8114612fd557600080fd5b50565b600081359050612fe781612fc1565b92915050565b60006020828403121561300357613002612e37565b5b600061301184828501612fd8565b91505092915050565b600073ffffffffffffffffffffffffffffffffffffffff82169050919050565b60006130458261301a565b9050919050565b6130558161303a565b82525050565b6000602082019050613070600083018461304c565b92915050565b61307f8161303a565b811461308a57600080fd5b50565b60008135905061309c81613076565b92915050565b600080604083850312156130b9576130b8612e37565b5b60006130c78582860161308d565b92505060206130d885828601612fd8565b9150509250929050565b600080fd5b600080fd5b600080fd5b60008083601f840112613107576131066130e2565b5b8235905067ffffffffffffffff811115613124576131236130e7565b5b6020830191508360018202830111156131405761313f6130ec565b5b9250929050565b60008060008060006080868803121561316357613162612e37565b5b60006131718882890161308d565b95505060206131828882890161308d565b945050604061319388828901612fd8565b935050606086013567ffffffffffffffff8111156131b4576131b3612e3c565b5b6131c0888289016130f1565b92509250509295509295909350565b6131d881612e41565b82525050565b60006020820190506131f360008301846131cf565b92915050565b60008060006060848603121561321257613211612e37565b5b60006132208682870161308d565b93505060206132318682870161308d565b925050604061324286828701612fd8565b9150509250925092565b7f4e487b7100000000000000000000000000000000000000000000000000000000600052604160045260246000fd5b61328482612f4b565b810181811067ffffffffffffffff821117156132a3576132a261324c565b5b80604052505050565b60006132b6612e2d565b90506132c2828261327b565b919050565b600067ffffffffffffffff8211156132e2576132e161324c565b5b602082029050602081019050919050565b600080fd5b60006133038261303a565b9050919050565b613313816132f8565b811461331e57600080fd5b50565b6000813590506133308161330a565b92915050565b60006040828403121561334c5761334b6132f3565b5b61335660406132ac565b9050600061336684828501613321565b600083015250602061337a84828501612fd8565b60208301525092915050565b6000613399613394846132c7565b6132ac565b905080838252602082019050604084028301858111156133bc576133bb6130ec565b5b835b818110156133e557806133d18882613336565b8452602084019350506040810190506133be565b5050509392505050565b600082601f830112613404576134036130e2565b5b8135613414848260208601613386565b91505092915050565b60006020828403121561343357613432612e37565b5b600082013567ffffffffffffffff81111561345157613450612e3c565b5b61345d848285016133ef565b91505092915050565b61346f81612fb7565b82525050565b600060208201905061348a6000830184613466565b92915050565b6000602082840312156134a6576134a5612e37565b5b60006134b48482850161308d565b91505092915050565b6134c681612ec6565b81146134d157600080fd5b50565b6000813590506134e3816134bd565b92915050565b60008060408385031215613500576134ff612e37565b5b600061350e8582860161308d565b925050602061351f858286016134d4565b9150509250929050565b600080fd5b600067ffffffffffffffff8211156135495761354861324c565b5b61355282612f4b565b9050602081019050919050565b82818337600083830152505050565b600061358161357c8461352e565b6132ac565b90508281526020810184848401111561359d5761359c613529565b5b6135a884828561355f565b509392505050565b600082601f8301126135c5576135c46130e2565b5b81356135d584826020860161356e565b91505092915050565b600080604083850312156135f5576135f4612e37565b5b600083013567ffffffffffffffff81111561361357613612612e3c565b5b61361f858286016133ef565b925050602083013567ffffffffffffffff8111156136405761363f612e3c565b5b61364c858286016135b0565b9150509250929050565b600067ffffffffffffffff8211156136715761367061324c565b5b61367a82612f4b565b9050602081019050919050565b600061369a61369584613656565b6132ac565b9050828152602081018484840111156136b6576136b5613529565b5b6136c184828561355f565b509392505050565b600082601f8301126136de576136dd6130e2565b5b81356136ee848260208601613687565b91505092915050565b6000806000806080858703121561371157613710612e37565b5b600061371f8782880161308d565b94505060206137308782880161308d565b935050604061374187828801612fd8565b925050606085013567ffffffffffffffff81111561376257613761612e3c565b5b61376e878288016136c9565b91505092959194509250565b6000806040838503121561379157613790612e37565b5b600061379f85828601612fd8565b92505060206137b085828601612fd8565b9150509250929050565b6000819050919050565b60006137df6137da6137d58461301a565b6137ba565b61301a565b9050919050565b60006137f1826137c4565b9050919050565b6000613803826137e6565b9050919050565b613813816137f8565b82525050565b600060408201905061382e600083018561380a565b61383b6020830184613466565b9392505050565b600081519050919050565b600082825260208201905092915050565b6000819050602082019050919050565b613877816137f8565b82525050565b61388681612fb7565b82525050565b6040820160008201516138a2600085018261386e565b5060208201516138b5602085018261387d565b50505050565b60006138c7838361388c565b60408301905092915050565b6000602082019050919050565b60006138eb82613842565b6138f5818561384d565b93506139008361385e565b8060005b8381101561393157815161391888826138bb565b9750613923836138d3565b925050600181019050613904565b5085935050505092915050565b6000602082019050818103600083015261395881846138e0565b905092915050565b6000806040838503121561397757613976612e37565b5b60006139858582860161308d565b92505060206139968582860161308d565b9150509250929050565b600080604083850312156139b7576139b6612e37565b5b600083013567ffffffffffffffff8111156139d5576139d4612e3c565b5b6139e1858286016135b0565b925050602083013567ffffffffffffffff811115613a0257613a01612e3c565b5b613a0e858286016135b0565b9150509250929050565b7f4e487b7100000000000000000000000000000000000000000000000000000000600052602260045260246000fd5b60006002820490506001821680613a5f57607f821691505b60208210811415613a7357613a72613a18565b5b50919050565b7f4552433732313a20617070726f76656420717565727920666f72206e6f6e657860008201527f697374656e7420746f6b656e0000000000000000000000000000000000000000602082015250565b6000613ad5602c83612f07565b9150613ae082613a79565b604082019050919050565b60006020820190508181036000830152613b0481613ac8565b9050919050565b7f4552433732313a20617070726f76616c20746f2063757272656e74206f776e6560008201527f7200000000000000000000000000000000000000000000000000000000000000602082015250565b6000613b67602183612f07565b9150613b7282613b0b565b604082019050919050565b60006020820190508181036000830152613b9681613b5a565b9050919050565b7f4552433732313a20617070726f76652063616c6c6572206973206e6f74206f7760008201527f6e6572206e6f7220617070726f76656420666f7220616c6c0000000000000000602082015250565b6000613bf9603883612f07565b9150613c0482613b9d565b604082019050919050565b60006020820190508181036000830152613c2881613bec565b9050919050565b7f4552433732313a207472616e736665722063616c6c6572206973206e6f74206f60008201527f776e6572206e6f7220617070726f766564000000000000000000000000000000602082015250565b6000613c8b603183612f07565b9150613c9682613c2f565b604082019050919050565b60006020820190508181036000830152613cba81613c7e565b9050919050565b7f4f776e61626c653a2063616c6c6572206973206e6f7420746865206f776e6572600082015250565b6000613cf7602083612f07565b9150613d0282613cc1565b602082019050919050565b60006020820190508181036000830152613d2681613cea565b9050919050565b7f42756e646c6520666565206e6f74207061696400000000000000000000000000600082015250565b6000613d63601383612f07565b9150613d6e82613d2d565b602082019050919050565b60006020820190508181036000830152613d9281613d56565b9050919050565b7f4e487b7100000000000000000000000000000000000000000000000000000000600052603260045260246000fd5b6000606082019050613ddd600083018661304c565b613dea602083018561304c565b613df76040830184613466565b949350505050565b7f4e487b7100000000000000000000000000000000000000000000000000000000600052601160045260246000fd5b6000613e3982612fb7565b91507fffffffffffffffffffffffffffffffffffffffffffffffffffffffffffffffff821415613e6c57613e6b613dff565b5b600182019050919050565b7f4552433732313a206f776e657220717565727920666f72206e6f6e657869737460008201527f656e7420746f6b656e0000000000000000000000000000000000000000000000602082015250565b6000613ed3602983612f07565b9150613ede82613e77565b604082019050919050565b60006020820190508181036000830152613f0281613ec6565b9050919050565b7f4552433732313a2062616c616e636520717565727920666f7220746865207a6560008201527f726f206164647265737300000000000000000000000000000000000000000000602082015250565b6000613f65602a83612f07565b9150613f7082613f09565b604082019050919050565b60006020820190508181036000830152613f9481613f58565b9050919050565b7f4552433732313a20617070726f766520746f2063616c6c657200000000000000600082015250565b6000613fd1601983612f07565b9150613fdc82613f9b565b602082019050919050565b6000602082019050818103600083015261400081613fc4565b9050919050565b7f45524337323155524953746f726167653a2055524920717565727920666f722060008201527f6e6f6e6578697374656e7420746f6b656e000000000000000000000000000000602082015250565b6000614063603183612f07565b915061406e82614007565b604082019050919050565b6000602082019050818103600083015261409281614056565b9050919050565b600081905092915050565b60006140af82612efc565b6140b98185614099565b93506140c9818560208601612f18565b80840191505092915050565b60006140e182856140a4565b91506140ed82846140a4565b91508190509392505050565b7f4552433732314d657461646174613a2042756e64656c656420746f6b656e732060008201527f717565727920666f72206e6f6e6578697374656e7420746f6b656e0000000000602082015250565b6000614155603b83612f07565b9150614160826140f9565b604082019050919050565b6000602082019050818103600083015261418481614148565b9050919050565b7f4f776e61626c653a206e6577206f776e657220697320746865207a65726f206160008201527f6464726573730000000000000000000000000000000000000000000000000000602082015250565b60006141e7602683612f07565b91506141f28261418b565b604082019050919050565b60006020820190508181036000830152614216816141da565b9050919050565b7f4552433732313a207472616e73666572206f6620746f6b656e2074686174206960008201527f73206e6f74206f776e0000000000000000000000000000000000000000000000602082015250565b6000614279602983612f07565b91506142848261421d565b604082019050919050565b600060208201905081810360008301526142a88161426c565b9050919050565b7f496e697469616c697a61626c653a20636f6e747261637420697320616c72656160008201527f647920696e697469616c697a6564000000000000000000000000000000000000602082015250565b600061430b602e83612f07565b9150614316826142af565b604082019050919050565b6000602082019050818103600083015261433a816142fe565b9050919050565b7f4552433732313a206f70657261746f7220717565727920666f72206e6f6e657860008201527f697374656e7420746f6b656e0000000000000000000000000000000000000000602082015250565b600061439d602c83612f07565b91506143a882614341565b604082019050919050565b600060208201905081810360008301526143cc81614390565b9050919050565b7f4552433732313a207472616e7366657220746f20746865207a65726f2061646460008201527f7265737300000000000000000000000000000000000000000000000000000000602082015250565b600061442f602483612f07565b915061443a826143d3565b604082019050919050565b6000602082019050818103600083015261445e81614422565b9050919050565b600061447082612fb7565b915061447b83612fb7565b92508282101561448e5761448d613dff565b5b828203905092915050565b60006144a482612fb7565b91506144af83612fb7565b9250827fffffffffffffffffffffffffffffffffffffffffffffffffffffffffffffffff038211156144e4576144e3613dff565b5b828201905092915050565b7f45524337323155524953746f726167653a2055524920736574206f66206e6f6e60008201527f6578697374656e7420746f6b656e000000000000000000000000000000000000602082015250565b600061454b602e83612f07565b9150614556826144ef565b604082019050919050565b6000602082019050818103600083015261457a8161453e565b9050919050565b7f4552433732313a207472616e7366657220746f206e6f6e20455243373231526560008201527f63656976657220696d706c656d656e7465720000000000000000000000000000602082015250565b60006145dd603283612f07565b91506145e882614581565b604082019050919050565b6000602082019050818103600083015261460c816145d0565b9050919050565b7f4552433732314d657461646174613a2055524920717565727920666f72206e6f60008201527f6e6578697374656e7420746f6b656e0000000000000000000000000000000000602082015250565b600061466f602f83612f07565b915061467a82614613565b604082019050919050565b6000602082019050818103600083015261469e81614662565b9050919050565b600081519050919050565b600082825260208201905092915050565b60006146cc826146a5565b6146d681856146b0565b93506146e6818560208601612f18565b6146ef81612f4b565b840191505092915050565b600060808201905061470f600083018761304c565b61471c602083018661304c565b6147296040830185613466565b818103606083015261473b81846146c1565b905095945050505050565b60008151905061475581612e6d565b92915050565b60006020828403121561477157614770612e37565b5b600061477f84828501614746565b91505092915050565b7f4e487b7100000000000000000000000000000000000000000000000000000000600052601260045260246000fd5b60006147c282612fb7565b91506147cd83612fb7565b9250826147dd576147dc614788565b5b828204905092915050565b60006147f382612fb7565b91506147fe83612fb7565b92508261480e5761480d614788565b5b828206905092915050565b7f4552433732313a206d696e7420746f20746865207a65726f2061646472657373600082015250565b600061484f602083612f07565b915061485a82614819565b602082019050919050565b6000602082019050818103600083015261487e81614842565b9050919050565b7f4552433732313a20746f6b656e20616c7265616479206d696e74656400000000600082015250565b60006148bb601c83612f07565b91506148c682614885565b602082019050919050565b600060208201905081810360008301526148ea816148ae565b905091905056fea264697066735822122053867bd7c52002d4e909ad4ed6e459c9d86929633b2abbdc01c143339292a69d64736f6c63430008090033",
  "linkReferences": {},
  "deployedLinkReferences": {}
}